{
  "abi": [
    {
      "inputs": [
        {
          "internalType": "uint256",
          "name": "_serial",
          "type": "uint256"
        },
        {
          "internalType": "string",
          "name": "_projectName",
          "type": "string"
        },
        {
          "internalType": "address",
          "name": "_to",
          "type": "address"
        },
        {
          "internalType": "string",
          "name": "_contractdetail",
          "type": "string"
        },
        {
          "internalType": "string",
          "name": "_completeDate",
          "type": "string"
        },
        {
          "internalType": "uint256",
          "name": "_phone",
          "type": "uint256"
        },
        {
          "internalType": "string",
          "name": "_email",
          "type": "string"
        },
        {
          "internalType": "string",
          "name": "_gst",
          "type": "string"
        }
      ],
      "stateMutability": "nonpayable",
      "type": "constructor"
    },
    {
      "inputs": [],
      "name": "client_GST",
      "outputs": [
        {
          "internalType": "string",
          "name": "",
          "type": "string"
        }
      ],
      "stateMutability": "view",
      "type": "function"
    },
    {
      "inputs": [],
      "name": "completion_date",
      "outputs": [
        {
          "internalType": "string",
          "name": "",
          "type": "string"
        }
      ],
      "stateMutability": "view",
      "type": "function"
    },
    {
      "inputs": [],
      "name": "contractState",
      "outputs": [
        {
          "internalType": "string",
          "name": "",
          "type": "string"
        }
      ],
      "stateMutability": "view",
      "type": "function"
    },
    {
      "inputs": [],
      "name": "contract_detail",
      "outputs": [
        {
          "internalType": "string",
          "name": "",
          "type": "string"
        }
      ],
      "stateMutability": "view",
      "type": "function"
    },
    {
      "inputs": [],
      "name": "contract_state",
      "outputs": [
        {
          "internalType": "enum Contracts.CONTRACT_STATE",
          "name": "",
          "type": "uint8"
        }
      ],
      "stateMutability": "view",
      "type": "function"
    },
    {
      "inputs": [],
      "name": "decrementContractState",
      "outputs": [],
      "stateMutability": "nonpayable",
      "type": "function"
    },
    {
      "inputs": [],
      "name": "email",
      "outputs": [
        {
          "internalType": "string",
          "name": "",
          "type": "string"
        }
      ],
      "stateMutability": "view",
      "type": "function"
    },
    {
      "inputs": [],
      "name": "fullContract",
      "outputs": [
        {
          "internalType": "uint256",
          "name": "",
          "type": "uint256"
        },
        {
          "internalType": "string",
          "name": "",
          "type": "string"
        },
        {
          "internalType": "string",
          "name": "",
          "type": "string"
        },
        {
          "internalType": "address",
          "name": "",
          "type": "address"
        },
        {
          "internalType": "string",
          "name": "",
          "type": "string"
        },
        {
          "internalType": "string",
          "name": "",
          "type": "string"
        },
        {
          "internalType": "uint256",
          "name": "",
          "type": "uint256"
        },
        {
          "internalType": "string",
          "name": "",
          "type": "string"
        }
      ],
      "stateMutability": "view",
      "type": "function"
    },
    {
      "inputs": [],
      "name": "incrementContractState",
      "outputs": [],
      "stateMutability": "nonpayable",
      "type": "function"
    },
    {
      "inputs": [],
      "name": "phone",
      "outputs": [
        {
          "internalType": "uint256",
          "name": "",
          "type": "uint256"
        }
      ],
      "stateMutability": "view",
      "type": "function"
    },
    {
      "inputs": [],
      "name": "project_name",
      "outputs": [
        {
          "internalType": "string",
          "name": "",
          "type": "string"
        }
      ],
      "stateMutability": "view",
      "type": "function"
    },
    {
      "inputs": [],
      "name": "serial",
      "outputs": [
        {
          "internalType": "uint256",
          "name": "",
          "type": "uint256"
        }
      ],
      "stateMutability": "view",
      "type": "function"
    }
  ],
  "bytecode": "60806040523480156200001157600080fd5b5060405162000c9e38038062000c9e833981016040819052620000349162000270565b8651620000499060019060208a0190620000e0565b50600380546001600160a01b0319166001600160a01b03881617905584516200007a906004906020880190620000e0565b50835162000090906005906020870190620000e0565b508051620000a6906002906020840190620000e0565b5060068390558151620000c1906007906020850190620000e0565b50505060009590955550506008805460ff1916905550620003b5915050565b828054620000ee9062000378565b90600052602060002090601f0160209004810192826200011257600085556200015d565b82601f106200012d57805160ff19168380011785556200015d565b828001600101855582156200015d579182015b828111156200015d57825182559160200191906001019062000140565b506200016b9291506200016f565b5090565b5b808211156200016b576000815560010162000170565b634e487b7160e01b600052604160045260246000fd5b600082601f830112620001ae57600080fd5b81516001600160401b0380821115620001cb57620001cb62000186565b604051601f8301601f19908116603f01168101908282118183101715620001f657620001f662000186565b816040528381526020925086838588010111156200021357600080fd5b600091505b8382101562000237578582018301518183018401529082019062000218565b83821115620002495760008385830101525b9695505050505050565b80516001600160a01b03811681146200026b57600080fd5b919050565b600080600080600080600080610100898b0312156200028e57600080fd5b885160208a01519098506001600160401b0380821115620002ae57600080fd5b620002bc8c838d016200019c565b9850620002cc60408c0162000253565b975060608b0151915080821115620002e357600080fd5b620002f18c838d016200019c565b965060808b01519150808211156200030857600080fd5b620003168c838d016200019c565b955060a08b0151945060c08b01519150808211156200033457600080fd5b620003428c838d016200019c565b935060e08b01519150808211156200035957600080fd5b50620003688b828c016200019c565b9150509295985092959890939650565b600181811c908216806200038d57607f821691505b60208210811415620003af57634e487b7160e01b600052602260045260246000fd5b50919050565b6108d980620003c56000396000f3fe608060405234801561001057600080fd5b50600436106100b45760003560e01c806385209ee01161007157806385209ee0146101275780639284f4971461012f578063d2ccd08114610146578063dc542c541461014e578063dc9c9f3314610156578063f6d713dd1461015e57600080fd5b80633bbab644146100b957806348f7a5b4146100d75780634aaf6b86146100e15780635ac6f961146100fb578063722ee14d14610103578063820e93f51461011f575b600080fd5b6100c1610167565b6040516100ce9190610782565b60405180910390f35b6100df6101f5565b005b6008546100ee9060ff1681565b6040516100ce91906107b2565b6100c16102a2565b61010b6102af565b6040516100ce9897969594939291906107da565b6100c16105b9565b6100c16105c6565b61013860065481565b6040519081526020016100ce565b6100c161066e565b6100df61067b565b6100c1610728565b61013860005481565b6002805461017490610868565b80601f01602080910402602001604051908101604052809291908181526020018280546101a090610868565b80156101ed5780601f106101c2576101008083540402835291602001916101ed565b820191906000526020600020905b8154815290600101906020018083116101d057829003601f168201915b505050505081565b600060085460ff16600281111561020e5761020e61079c565b14156102615760405162461bcd60e51b815260206004820152601b60248201527f54686520636f6e747261637420686173206a75737420626567756e000000000060448201526064015b60405180910390fd5b600260085460ff16600281111561027a5761027a61079c565b141561029657600880546001919060ff191682805b0217905550565b6008805460ff19169055565b6005805461017490610868565b600060608060006060806000606060005460016002600360009054906101000a90046001600160a01b03166004600560065460078680546102ef90610868565b80601f016020809104026020016040519081016040528092919081815260200182805461031b90610868565b80156103685780601f1061033d57610100808354040283529160200191610368565b820191906000526020600020905b81548152906001019060200180831161034b57829003601f168201915b5050505050965085805461037b90610868565b80601f01602080910402602001604051908101604052809291908181526020018280546103a790610868565b80156103f45780601f106103c9576101008083540402835291602001916103f4565b820191906000526020600020905b8154815290600101906020018083116103d757829003601f168201915b5050505050955083805461040790610868565b80601f016020809104026020016040519081016040528092919081815260200182805461043390610868565b80156104805780601f1061045557610100808354040283529160200191610480565b820191906000526020600020905b81548152906001019060200180831161046357829003601f168201915b5050505050935082805461049390610868565b80601f01602080910402602001604051908101604052809291908181526020018280546104bf90610868565b801561050c5780601f106104e15761010080835404028352916020019161050c565b820191906000526020600020905b8154815290600101906020018083116104ef57829003601f168201915b5050505050925080805461051f90610868565b80601f016020809104026020016040519081016040528092919081815260200182805461054b90610868565b80156105985780601f1061056d57610100808354040283529160200191610598565b820191906000526020600020905b81548152906001019060200180831161057b57829003601f168201915b50505050509050975097509750975097509750975097509091929394959697565b6007805461017490610868565b6060600060085460ff1660028111156105e1576105e161079c565b141561060a57506040805180820190915260088152675354415254494e4760c01b602082015290565b600160085460ff1660028111156106235761062361079c565b141561064a57506040805180820190915260068152654d494457415960d01b602082015290565b5060408051808201909152600981526846494e495348494e4760b81b602082015290565b6004805461017490610868565b600260085460ff1660028111156106945761069461079c565b14156106e25760405162461bcd60e51b815260206004820152601f60248201527f54686520636f6e747261637420686173206265656e20636f6d706c65746564006044820152606401610258565b600060085460ff1660028111156106fb576106fb61079c565b141561071457600880546001919060ff1916828061028f565b600880546002919060ff191660018361028f565b6001805461017490610868565b6000815180845260005b8181101561075b5760208185018101518683018201520161073f565b8181111561076d576000602083870101525b50601f01601f19169290920160200192915050565b6020815260006107956020830184610735565b9392505050565b634e487b7160e01b600052602160045260246000fd5b60208101600383106107d457634e487b7160e01b600052602160045260246000fd5b91905290565b60006101008a83528060208401526107f48184018b610735565b90508281036040840152610808818a610735565b6001600160a01b03891660608501528381036080850152905061082b8188610735565b905082810360a084015261083f8187610735565b90508460c084015282810360e08401526108598185610735565b9b9a5050505050505050505050565b600181811c9082168061087c57607f821691505b6020821081141561089d57634e487b7160e01b600052602260045260246000fd5b5091905056fea2646970667358221220b45e34304c2678ef43c598e45f34fdf2b78830ec8aec4a12fa82a73bc43c5ed564736f6c634300080c0033",
  "bytecodeSha1": "f3097afb2dd7a2ee9ae297ee400481964635ee78",
  "compiler": {
    "evm_version": "istanbul",
    "optimizer": {
      "enabled": true,
      "runs": 200
    },
    "version": "0.8.12+commit.f00d7308"
  },
  "contractName": "Contracts",
  "language": "Solidity",
  "natspec": {
    "kind": "dev",
    "methods": {},
    "version": 1
  },
  "opcodes": "PUSH1 0x80 PUSH1 0x40 MSTORE CALLVALUE DUP1 ISZERO PUSH2 0x10 JUMPI PUSH1 0x0 DUP1 REVERT JUMPDEST POP PUSH1 0x4 CALLDATASIZE LT PUSH2 0xB4 JUMPI PUSH1 0x0 CALLDATALOAD PUSH1 0xE0 SHR DUP1 PUSH4 0x85209EE0 GT PUSH2 0x71 JUMPI DUP1 PUSH4 0x85209EE0 EQ PUSH2 0x127 JUMPI DUP1 PUSH4 0x9284F497 EQ PUSH2 0x12F JUMPI DUP1 PUSH4 0xD2CCD081 EQ PUSH2 0x146 JUMPI DUP1 PUSH4 0xDC542C54 EQ PUSH2 0x14E JUMPI DUP1 PUSH4 0xDC9C9F33 EQ PUSH2 0x156 JUMPI DUP1 PUSH4 0xF6D713DD EQ PUSH2 0x15E JUMPI PUSH1 0x0 DUP1 REVERT JUMPDEST DUP1 PUSH4 0x3BBAB644 EQ PUSH2 0xB9 JUMPI DUP1 PUSH4 0x48F7A5B4 EQ PUSH2 0xD7 JUMPI DUP1 PUSH4 0x4AAF6B86 EQ PUSH2 0xE1 JUMPI DUP1 PUSH4 0x5AC6F961 EQ PUSH2 0xFB JUMPI DUP1 PUSH4 0x722EE14D EQ PUSH2 0x103 JUMPI DUP1 PUSH4 0x820E93F5 EQ PUSH2 0x11F JUMPI JUMPDEST PUSH1 0x0 DUP1 REVERT JUMPDEST PUSH2 0xC1 PUSH2 0x167 JUMP JUMPDEST PUSH1 0x40 MLOAD PUSH2 0xCE SWAP2 SWAP1 PUSH2 0x782 JUMP JUMPDEST PUSH1 0x40 MLOAD DUP1 SWAP2 SUB SWAP1 RETURN JUMPDEST PUSH2 0xDF PUSH2 0x1F5 JUMP JUMPDEST STOP JUMPDEST PUSH1 0x8 SLOAD PUSH2 0xEE SWAP1 PUSH1 0xFF AND DUP2 JUMP JUMPDEST PUSH1 0x40 MLOAD PUSH2 0xCE SWAP2 SWAP1 PUSH2 0x7B2 JUMP JUMPDEST PUSH2 0xC1 PUSH2 0x2A2 JUMP JUMPDEST PUSH2 0x10B PUSH2 0x2AF JUMP JUMPDEST PUSH1 0x40 MLOAD PUSH2 0xCE SWAP9 SWAP8 SWAP7 SWAP6 SWAP5 SWAP4 SWAP3 SWAP2 SWAP1 PUSH2 0x7DA JUMP JUMPDEST PUSH2 0xC1 PUSH2 0x5B9 JUMP JUMPDEST PUSH2 0xC1 PUSH2 0x5C6 JUMP JUMPDEST PUSH2 0x138 PUSH1 0x6 SLOAD DUP2 JUMP JUMPDEST PUSH1 0x40 MLOAD SWAP1 DUP2 MSTORE PUSH1 0x20 ADD PUSH2 0xCE JUMP JUMPDEST PUSH2 0xC1 PUSH2 0x66E JUMP JUMPDEST PUSH2 0xDF PUSH2 0x67B JUMP JUMPDEST PUSH2 0xC1 PUSH2 0x728 JUMP JUMPDEST PUSH2 0x138 PUSH1 0x0 SLOAD DUP2 JUMP JUMPDEST PUSH1 0x2 DUP1 SLOAD PUSH2 0x174 SWAP1 PUSH2 0x868 JUMP JUMPDEST DUP1 PUSH1 0x1F ADD PUSH1 0x20 DUP1 SWAP2 DIV MUL PUSH1 0x20 ADD PUSH1 0x40 MLOAD SWAP1 DUP2 ADD PUSH1 0x40 MSTORE DUP1 SWAP3 SWAP2 SWAP1 DUP2 DUP2 MSTORE PUSH1 0x20 ADD DUP3 DUP1 SLOAD PUSH2 0x1A0 SWAP1 PUSH2 0x868 JUMP JUMPDEST DUP1 ISZERO PUSH2 0x1ED JUMPI DUP1 PUSH1 0x1F LT PUSH2 0x1C2 JUMPI PUSH2 0x100 DUP1 DUP4 SLOAD DIV MUL DUP4 MSTORE SWAP2 PUSH1 0x20 ADD SWAP2 PUSH2 0x1ED JUMP JUMPDEST DUP3 ADD SWAP2 SWAP1 PUSH1 0x0 MSTORE PUSH1 0x20 PUSH1 0x0 KECCAK256 SWAP1 JUMPDEST DUP2 SLOAD DUP2 MSTORE SWAP1 PUSH1 0x1 ADD SWAP1 PUSH1 0x20 ADD DUP1 DUP4 GT PUSH2 0x1D0 JUMPI DUP3 SWAP1 SUB PUSH1 0x1F AND DUP3 ADD SWAP2 JUMPDEST POP POP POP POP POP DUP2 JUMP JUMPDEST PUSH1 0x0 PUSH1 0x8 SLOAD PUSH1 0xFF AND PUSH1 0x2 DUP2 GT ISZERO PUSH2 0x20E JUMPI PUSH2 0x20E PUSH2 0x79C JUMP JUMPDEST EQ ISZERO PUSH2 0x261 JUMPI PUSH1 0x40 MLOAD PUSH3 0x461BCD PUSH1 0xE5 SHL DUP2 MSTORE PUSH1 0x20 PUSH1 0x4 DUP3 ADD MSTORE PUSH1 0x1B PUSH1 0x24 DUP3 ADD MSTORE PUSH32 0x54686520636F6E747261637420686173206A75737420626567756E0000000000 PUSH1 0x44 DUP3 ADD MSTORE PUSH1 0x64 ADD JUMPDEST PUSH1 0x40 MLOAD DUP1 SWAP2 SUB SWAP1 REVERT JUMPDEST PUSH1 0x2 PUSH1 0x8 SLOAD PUSH1 0xFF AND PUSH1 0x2 DUP2 GT ISZERO PUSH2 0x27A JUMPI PUSH2 0x27A PUSH2 0x79C JUMP JUMPDEST EQ ISZERO PUSH2 0x296 JUMPI PUSH1 0x8 DUP1 SLOAD PUSH1 0x1 SWAP2 SWAP1 PUSH1 0xFF NOT AND DUP3 DUP1 JUMPDEST MUL OR SWAP1 SSTORE POP JUMP JUMPDEST PUSH1 0x8 DUP1 SLOAD PUSH1 0xFF NOT AND SWAP1 SSTORE JUMP JUMPDEST PUSH1 0x5 DUP1 SLOAD PUSH2 0x174 SWAP1 PUSH2 0x868 JUMP JUMPDEST PUSH1 0x0 PUSH1 0x60 DUP1 PUSH1 0x0 PUSH1 0x60 DUP1 PUSH1 0x0 PUSH1 0x60 PUSH1 0x0 SLOAD PUSH1 0x1 PUSH1 0x2 PUSH1 0x3 PUSH1 0x0 SWAP1 SLOAD SWAP1 PUSH2 0x100 EXP SWAP1 DIV PUSH1 0x1 PUSH1 0x1 PUSH1 0xA0 SHL SUB AND PUSH1 0x4 PUSH1 0x5 PUSH1 0x6 SLOAD PUSH1 0x7 DUP7 DUP1 SLOAD PUSH2 0x2EF SWAP1 PUSH2 0x868 JUMP JUMPDEST DUP1 PUSH1 0x1F ADD PUSH1 0x20 DUP1 SWAP2 DIV MUL PUSH1 0x20 ADD PUSH1 0x40 MLOAD SWAP1 DUP2 ADD PUSH1 0x40 MSTORE DUP1 SWAP3 SWAP2 SWAP1 DUP2 DUP2 MSTORE PUSH1 0x20 ADD DUP3 DUP1 SLOAD PUSH2 0x31B SWAP1 PUSH2 0x868 JUMP JUMPDEST DUP1 ISZERO PUSH2 0x368 JUMPI DUP1 PUSH1 0x1F LT PUSH2 0x33D JUMPI PUSH2 0x100 DUP1 DUP4 SLOAD DIV MUL DUP4 MSTORE SWAP2 PUSH1 0x20 ADD SWAP2 PUSH2 0x368 JUMP JUMPDEST DUP3 ADD SWAP2 SWAP1 PUSH1 0x0 MSTORE PUSH1 0x20 PUSH1 0x0 KECCAK256 SWAP1 JUMPDEST DUP2 SLOAD DUP2 MSTORE SWAP1 PUSH1 0x1 ADD SWAP1 PUSH1 0x20 ADD DUP1 DUP4 GT PUSH2 0x34B JUMPI DUP3 SWAP1 SUB PUSH1 0x1F AND DUP3 ADD SWAP2 JUMPDEST POP POP POP POP POP SWAP7 POP DUP6 DUP1 SLOAD PUSH2 0x37B SWAP1 PUSH2 0x868 JUMP JUMPDEST DUP1 PUSH1 0x1F ADD PUSH1 0x20 DUP1 SWAP2 DIV MUL PUSH1 0x20 ADD PUSH1 0x40 MLOAD SWAP1 DUP2 ADD PUSH1 0x40 MSTORE DUP1 SWAP3 SWAP2 SWAP1 DUP2 DUP2 MSTORE PUSH1 0x20 ADD DUP3 DUP1 SLOAD PUSH2 0x3A7 SWAP1 PUSH2 0x868 JUMP JUMPDEST DUP1 ISZERO PUSH2 0x3F4 JUMPI DUP1 PUSH1 0x1F LT PUSH2 0x3C9 JUMPI PUSH2 0x100 DUP1 DUP4 SLOAD DIV MUL DUP4 MSTORE SWAP2 PUSH1 0x20 ADD SWAP2 PUSH2 0x3F4 JUMP JUMPDEST DUP3 ADD SWAP2 SWAP1 PUSH1 0x0 MSTORE PUSH1 0x20 PUSH1 0x0 KECCAK256 SWAP1 JUMPDEST DUP2 SLOAD DUP2 MSTORE SWAP1 PUSH1 0x1 ADD SWAP1 PUSH1 0x20 ADD DUP1 DUP4 GT PUSH2 0x3D7 JUMPI DUP3 SWAP1 SUB PUSH1 0x1F AND DUP3 ADD SWAP2 JUMPDEST POP POP POP POP POP SWAP6 POP DUP4 DUP1 SLOAD PUSH2 0x407 SWAP1 PUSH2 0x868 JUMP JUMPDEST DUP1 PUSH1 0x1F ADD PUSH1 0x20 DUP1 SWAP2 DIV MUL PUSH1 0x20 ADD PUSH1 0x40 MLOAD SWAP1 DUP2 ADD PUSH1 0x40 MSTORE DUP1 SWAP3 SWAP2 SWAP1 DUP2 DUP2 MSTORE PUSH1 0x20 ADD DUP3 DUP1 SLOAD PUSH2 0x433 SWAP1 PUSH2 0x868 JUMP JUMPDEST DUP1 ISZERO PUSH2 0x480 JUMPI DUP1 PUSH1 0x1F LT PUSH2 0x455 JUMPI PUSH2 0x100 DUP1 DUP4 SLOAD DIV MUL DUP4 MSTORE SWAP2 PUSH1 0x20 ADD SWAP2 PUSH2 0x480 JUMP JUMPDEST DUP3 ADD SWAP2 SWAP1 PUSH1 0x0 MSTORE PUSH1 0x20 PUSH1 0x0 KECCAK256 SWAP1 JUMPDEST DUP2 SLOAD DUP2 MSTORE SWAP1 PUSH1 0x1 ADD SWAP1 PUSH1 0x20 ADD DUP1 DUP4 GT PUSH2 0x463 JUMPI DUP3 SWAP1 SUB PUSH1 0x1F AND DUP3 ADD SWAP2 JUMPDEST POP POP POP POP POP SWAP4 POP DUP3 DUP1 SLOAD PUSH2 0x493 SWAP1 PUSH2 0x868 JUMP JUMPDEST DUP1 PUSH1 0x1F ADD PUSH1 0x20 DUP1 SWAP2 DIV MUL PUSH1 0x20 ADD PUSH1 0x40 MLOAD SWAP1 DUP2 ADD PUSH1 0x40 MSTORE DUP1 SWAP3 SWAP2 SWAP1 DUP2 DUP2 MSTORE PUSH1 0x20 ADD DUP3 DUP1 SLOAD PUSH2 0x4BF SWAP1 PUSH2 0x868 JUMP JUMPDEST DUP1 ISZERO PUSH2 0x50C JUMPI DUP1 PUSH1 0x1F LT PUSH2 0x4E1 JUMPI PUSH2 0x100 DUP1 DUP4 SLOAD DIV MUL DUP4 MSTORE SWAP2 PUSH1 0x20 ADD SWAP2 PUSH2 0x50C JUMP JUMPDEST DUP3 ADD SWAP2 SWAP1 PUSH1 0x0 MSTORE PUSH1 0x20 PUSH1 0x0 KECCAK256 SWAP1 JUMPDEST DUP2 SLOAD DUP2 MSTORE SWAP1 PUSH1 0x1 ADD SWAP1 PUSH1 0x20 ADD DUP1 DUP4 GT PUSH2 0x4EF JUMPI DUP3 SWAP1 SUB PUSH1 0x1F AND DUP3 ADD SWAP2 JUMPDEST POP POP POP POP POP SWAP3 POP DUP1 DUP1 SLOAD PUSH2 0x51F SWAP1 PUSH2 0x868 JUMP JUMPDEST DUP1 PUSH1 0x1F ADD PUSH1 0x20 DUP1 SWAP2 DIV MUL PUSH1 0x20 ADD PUSH1 0x40 MLOAD SWAP1 DUP2 ADD PUSH1 0x40 MSTORE DUP1 SWAP3 SWAP2 SWAP1 DUP2 DUP2 MSTORE PUSH1 0x20 ADD DUP3 DUP1 SLOAD PUSH2 0x54B SWAP1 PUSH2 0x868 JUMP JUMPDEST DUP1 ISZERO PUSH2 0x598 JUMPI DUP1 PUSH1 0x1F LT PUSH2 0x56D JUMPI PUSH2 0x100 DUP1 DUP4 SLOAD DIV MUL DUP4 MSTORE SWAP2 PUSH1 0x20 ADD SWAP2 PUSH2 0x598 JUMP JUMPDEST DUP3 ADD SWAP2 SWAP1 PUSH1 0x0 MSTORE PUSH1 0x20 PUSH1 0x0 KECCAK256 SWAP1 JUMPDEST DUP2 SLOAD DUP2 MSTORE SWAP1 PUSH1 0x1 ADD SWAP1 PUSH1 0x20 ADD DUP1 DUP4 GT PUSH2 0x57B JUMPI DUP3 SWAP1 SUB PUSH1 0x1F AND DUP3 ADD SWAP2 JUMPDEST POP POP POP POP POP SWAP1 POP SWAP8 POP SWAP8 POP SWAP8 POP SWAP8 POP SWAP8 POP SWAP8 POP SWAP8 POP SWAP8 POP SWAP1 SWAP2 SWAP3 SWAP4 SWAP5 SWAP6 SWAP7 SWAP8 JUMP JUMPDEST PUSH1 0x7 DUP1 SLOAD PUSH2 0x174 SWAP1 PUSH2 0x868 JUMP JUMPDEST PUSH1 0x60 PUSH1 0x0 PUSH1 0x8 SLOAD PUSH1 0xFF AND PUSH1 0x2 DUP2 GT ISZERO PUSH2 0x5E1 JUMPI PUSH2 0x5E1 PUSH2 0x79C JUMP JUMPDEST EQ ISZERO PUSH2 0x60A JUMPI POP PUSH1 0x40 DUP1 MLOAD DUP1 DUP3 ADD SWAP1 SWAP2 MSTORE PUSH1 0x8 DUP2 MSTORE PUSH8 0x5354415254494E47 PUSH1 0xC0 SHL PUSH1 0x20 DUP3 ADD MSTORE SWAP1 JUMP JUMPDEST PUSH1 0x1 PUSH1 0x8 SLOAD PUSH1 0xFF AND PUSH1 0x2 DUP2 GT ISZERO PUSH2 0x623 JUMPI PUSH2 0x623 PUSH2 0x79C JUMP JUMPDEST EQ ISZERO PUSH2 0x64A JUMPI POP PUSH1 0x40 DUP1 MLOAD DUP1 DUP3 ADD SWAP1 SWAP2 MSTORE PUSH1 0x6 DUP2 MSTORE PUSH6 0x4D4944574159 PUSH1 0xD0 SHL PUSH1 0x20 DUP3 ADD MSTORE SWAP1 JUMP JUMPDEST POP PUSH1 0x40 DUP1 MLOAD DUP1 DUP3 ADD SWAP1 SWAP2 MSTORE PUSH1 0x9 DUP2 MSTORE PUSH9 0x46494E495348494E47 PUSH1 0xB8 SHL PUSH1 0x20 DUP3 ADD MSTORE SWAP1 JUMP JUMPDEST PUSH1 0x4 DUP1 SLOAD PUSH2 0x174 SWAP1 PUSH2 0x868 JUMP JUMPDEST PUSH1 0x2 PUSH1 0x8 SLOAD PUSH1 0xFF AND PUSH1 0x2 DUP2 GT ISZERO PUSH2 0x694 JUMPI PUSH2 0x694 PUSH2 0x79C JUMP JUMPDEST EQ ISZERO PUSH2 0x6E2 JUMPI PUSH1 0x40 MLOAD PUSH3 0x461BCD PUSH1 0xE5 SHL DUP2 MSTORE PUSH1 0x20 PUSH1 0x4 DUP3 ADD MSTORE PUSH1 0x1F PUSH1 0x24 DUP3 ADD MSTORE PUSH32 0x54686520636F6E747261637420686173206265656E20636F6D706C6574656400 PUSH1 0x44 DUP3 ADD MSTORE PUSH1 0x64 ADD PUSH2 0x258 JUMP JUMPDEST PUSH1 0x0 PUSH1 0x8 SLOAD PUSH1 0xFF AND PUSH1 0x2 DUP2 GT ISZERO PUSH2 0x6FB JUMPI PUSH2 0x6FB PUSH2 0x79C JUMP JUMPDEST EQ ISZERO PUSH2 0x714 JUMPI PUSH1 0x8 DUP1 SLOAD PUSH1 0x1 SWAP2 SWAP1 PUSH1 0xFF NOT AND DUP3 DUP1 PUSH2 0x28F JUMP JUMPDEST PUSH1 0x8 DUP1 SLOAD PUSH1 0x2 SWAP2 SWAP1 PUSH1 0xFF NOT AND PUSH1 0x1 DUP4 PUSH2 0x28F JUMP JUMPDEST PUSH1 0x1 DUP1 SLOAD PUSH2 0x174 SWAP1 PUSH2 0x868 JUMP JUMPDEST PUSH1 0x0 DUP2 MLOAD DUP1 DUP5 MSTORE PUSH1 0x0 JUMPDEST DUP2 DUP2 LT ISZERO PUSH2 0x75B JUMPI PUSH1 0x20 DUP2 DUP6 ADD DUP2 ADD MLOAD DUP7 DUP4 ADD DUP3 ADD MSTORE ADD PUSH2 0x73F JUMP JUMPDEST DUP2 DUP2 GT ISZERO PUSH2 0x76D JUMPI PUSH1 0x0 PUSH1 0x20 DUP4 DUP8 ADD ADD MSTORE JUMPDEST POP PUSH1 0x1F ADD PUSH1 0x1F NOT AND SWAP3 SWAP1 SWAP3 ADD PUSH1 0x20 ADD SWAP3 SWAP2 POP POP JUMP JUMPDEST PUSH1 0x20 DUP2 MSTORE PUSH1 0x0 PUSH2 0x795 PUSH1 0x20 DUP4 ADD DUP5 PUSH2 0x735 JUMP JUMPDEST SWAP4 SWAP3 POP POP POP JUMP JUMPDEST PUSH4 0x4E487B71 PUSH1 0xE0 SHL PUSH1 0x0 MSTORE PUSH1 0x21 PUSH1 0x4 MSTORE PUSH1 0x24 PUSH1 0x0 REVERT JUMPDEST PUSH1 0x20 DUP2 ADD PUSH1 0x3 DUP4 LT PUSH2 0x7D4 JUMPI PUSH4 0x4E487B71 PUSH1 0xE0 SHL PUSH1 0x0 MSTORE PUSH1 0x21 PUSH1 0x4 MSTORE PUSH1 0x24 PUSH1 0x0 REVERT JUMPDEST SWAP2 SWAP1 MSTORE SWAP1 JUMP JUMPDEST PUSH1 0x0 PUSH2 0x100 DUP11 DUP4 MSTORE DUP1 PUSH1 0x20 DUP5 ADD MSTORE PUSH2 0x7F4 DUP2 DUP5 ADD DUP12 PUSH2 0x735 JUMP JUMPDEST SWAP1 POP DUP3 DUP2 SUB PUSH1 0x40 DUP5 ADD MSTORE PUSH2 0x808 DUP2 DUP11 PUSH2 0x735 JUMP JUMPDEST PUSH1 0x1 PUSH1 0x1 PUSH1 0xA0 SHL SUB DUP10 AND PUSH1 0x60 DUP6 ADD MSTORE DUP4 DUP2 SUB PUSH1 0x80 DUP6 ADD MSTORE SWAP1 POP PUSH2 0x82B DUP2 DUP9 PUSH2 0x735 JUMP JUMPDEST SWAP1 POP DUP3 DUP2 SUB PUSH1 0xA0 DUP5 ADD MSTORE PUSH2 0x83F DUP2 DUP8 PUSH2 0x735 JUMP JUMPDEST SWAP1 POP DUP5 PUSH1 0xC0 DUP5 ADD MSTORE DUP3 DUP2 SUB PUSH1 0xE0 DUP5 ADD MSTORE PUSH2 0x859 DUP2 DUP6 PUSH2 0x735 JUMP JUMPDEST SWAP12 SWAP11 POP POP POP POP POP POP POP POP POP POP POP JUMP JUMPDEST PUSH1 0x1 DUP2 DUP2 SHR SWAP1 DUP3 AND DUP1 PUSH2 0x87C JUMPI PUSH1 0x7F DUP3 AND SWAP2 POP JUMPDEST PUSH1 0x20 DUP3 LT DUP2 EQ ISZERO PUSH2 0x89D JUMPI PUSH4 0x4E487B71 PUSH1 0xE0 SHL PUSH1 0x0 MSTORE PUSH1 0x22 PUSH1 0x4 MSTORE PUSH1 0x24 PUSH1 0x0 REVERT JUMPDEST POP SWAP2 SWAP1 POP JUMP INVALID LOG2 PUSH5 0x6970667358 0x22 SLT KECCAK256 0xB4 0x5E CALLVALUE ADDRESS 0x4C 0x26 PUSH25 0xEF43C598E45F34FDF2B78830EC8AEC4A12FA82A73BC43C5ED5 PUSH5 0x736F6C6343 STOP ADDMOD 0xC STOP CALLER ",
  "sha1": "f333bf1c1e60550a3fffc3d2881eee12849aeca9",
  "source": "// SPDX-License-Identifier: MIT\npragma solidity >=0.6.0 <0.9.0;\n\ncontract Contracts {\n    uint256 public serial;\n    string public project_name;\n    string public client_GST;\n    address private to; // address of client\n    string public contract_detail;\n    string public completion_date;\n    uint256 public phone;\n    string public email;\n    enum CONTRACT_STATE { STARTING, MIDWAY, FINISHING }\n    CONTRACT_STATE public contract_state;\n\n    constructor (uint256 _serial, string memory _projectName, address _to, string memory _contractdetail, string memory _completeDate, uint256 _phone, string memory _email, string memory _gst) public {\n        project_name = _projectName;\n        to = _to;\n        contract_detail = _contractdetail;\n        completion_date = _completeDate;\n        client_GST = _gst;\n        phone = _phone;\n        email = _email;\n        serial = _serial;\n        contract_state = CONTRACT_STATE.STARTING;\n    }\n\n    function incrementContractState() public {\n        require(contract_state != CONTRACT_STATE.FINISHING, \"The contract has been completed\");\n\n        if(contract_state == CONTRACT_STATE.STARTING) {\n            contract_state = CONTRACT_STATE.MIDWAY;\n        } else {\n            contract_state = CONTRACT_STATE.FINISHING;\n        }\n    }\n\n    function decrementContractState() public {\n        require(contract_state != CONTRACT_STATE.STARTING, \"The contract has just begun\");\n        \n        if(contract_state == CONTRACT_STATE.FINISHING) {\n            contract_state = CONTRACT_STATE.MIDWAY;\n        } else {\n            contract_state = CONTRACT_STATE.STARTING;\n        }\n    }\n\n    function contractState() public view returns(string memory) {\n        if(contract_state == CONTRACT_STATE.STARTING) {\n            return \"STARTING\";\n        } else if(contract_state == CONTRACT_STATE.MIDWAY) {\n            return \"MIDWAY\";\n        } else {\n            return \"FINISHING\";\n        }\n    }\n\n    function fullContract() external view returns (\n        uint256, string memory, string memory, address, string memory, string memory, uint256, string memory\n    ) {\n        return (\n            serial, project_name, client_GST, to, contract_detail, completion_date, phone, email\n        );\n    }\n}",
  "sourcePath": "contracts/Contracts.sol",
  "type": "contract"
}